{
  "contractName": "LandTransfer",
  "abi": [
    {
      "constant": true,
      "inputs": [
        {
          "internalType": "uint256",
          "name": "",
          "type": "uint256"
        }
      ],
      "name": "properties",
      "outputs": [
        {
          "internalType": "uint256",
          "name": "propertyId",
          "type": "uint256"
        },
        {
          "internalType": "string",
          "name": "ipfsHash",
          "type": "string"
        },
        {
          "internalType": "string",
          "name": "phone",
          "type": "string"
        },
        {
          "internalType": "string",
          "name": "location",
          "type": "string"
        },
        {
          "internalType": "address",
          "name": "seller",
          "type": "address"
        },
        {
          "internalType": "uint256",
          "name": "cost",
          "type": "uint256"
        },
        {
          "internalType": "enum LandTransfer.Status",
          "name": "status",
          "type": "uint8"
        }
      ],
      "payable": false,
      "stateMutability": "view",
      "type": "function"
    },
    {
      "constant": true,
      "inputs": [],
      "name": "propertyCount",
      "outputs": [
        {
          "internalType": "uint256",
          "name": "",
          "type": "uint256"
        }
      ],
      "payable": false,
      "stateMutability": "view",
      "type": "function"
    },
    {
      "constant": true,
      "inputs": [],
      "name": "registrar",
      "outputs": [
        {
          "internalType": "address",
          "name": "",
          "type": "address"
        }
      ],
      "payable": false,
      "stateMutability": "view",
      "type": "function"
    },
    {
      "constant": true,
      "inputs": [],
      "name": "requestCount",
      "outputs": [
        {
          "internalType": "uint256",
          "name": "",
          "type": "uint256"
        }
      ],
      "payable": false,
      "stateMutability": "view",
      "type": "function"
    },
    {
      "constant": true,
      "inputs": [
        {
          "internalType": "uint256",
          "name": "",
          "type": "uint256"
        }
      ],
      "name": "requests",
      "outputs": [
        {
          "internalType": "uint256",
          "name": "requestId",
          "type": "uint256"
        },
        {
          "internalType": "uint256",
          "name": "propertyId",
          "type": "uint256"
        },
        {
          "internalType": "address",
          "name": "owner",
          "type": "address"
        },
        {
          "internalType": "address",
          "name": "buyer",
          "type": "address"
        },
        {
          "internalType": "string",
          "name": "location",
          "type": "string"
        },
        {
          "internalType": "uint256",
          "name": "cost",
          "type": "uint256"
        },
        {
          "internalType": "string",
          "name": "ipfsHash",
          "type": "string"
        },
        {
          "internalType": "bool",
          "name": "ownerApproved",
          "type": "bool"
        },
        {
          "internalType": "bool",
          "name": "registrarApproved",
          "type": "bool"
        },
        {
          "internalType": "bool",
          "name": "ownerRejected",
          "type": "bool"
        },
        {
          "internalType": "bool",
          "name": "registrarRejected",
          "type": "bool"
        }
      ],
      "payable": false,
      "stateMutability": "view",
      "type": "function"
    },
    {
      "constant": false,
      "inputs": [
        {
          "internalType": "string",
          "name": "_hash",
          "type": "string"
        },
        {
          "internalType": "string",
          "name": "_location",
          "type": "string"
        },
        {
          "internalType": "uint256",
          "name": "_cost",
          "type": "uint256"
        },
        {
          "internalType": "string",
          "name": "_phone",
          "type": "string"
        }
      ],
      "name": "registerLand",
      "outputs": [],
      "payable": false,
      "stateMutability": "nonpayable",
      "type": "function"
    },
    {
      "constant": false,
      "inputs": [
        {
          "internalType": "uint256",
          "name": "_propId",
          "type": "uint256"
        }
      ],
      "name": "sendRequest",
      "outputs": [],
      "payable": false,
      "stateMutability": "nonpayable",
      "type": "function"
    },
    {
      "constant": false,
      "inputs": [
        {
          "internalType": "uint256",
          "name": "_requestId",
          "type": "uint256"
        }
      ],
      "name": "ownerApproval",
      "outputs": [],
      "payable": false,
      "stateMutability": "nonpayable",
      "type": "function"
    },
    {
      "constant": false,
      "inputs": [
        {
          "internalType": "uint256",
          "name": "_requestId",
          "type": "uint256"
        }
      ],
      "name": "ownerRejection",
      "outputs": [],
      "payable": false,
      "stateMutability": "nonpayable",
      "type": "function"
    },
    {
      "constant": false,
      "inputs": [
        {
          "internalType": "uint256",
          "name": "_requestId",
          "type": "uint256"
        }
      ],
      "name": "registrarApproval",
      "outputs": [],
      "payable": false,
      "stateMutability": "nonpayable",
      "type": "function"
    },
    {
      "constant": false,
      "inputs": [
        {
          "internalType": "uint256",
          "name": "_requestId",
          "type": "uint256"
        }
      ],
      "name": "registrarRejection",
      "outputs": [],
      "payable": false,
      "stateMutability": "nonpayable",
      "type": "function"
    }
  ],
  "bytecode": "0x6080604052732e43b638d3da60077eb5b0ec321c515ba86067876000806101000a81548173ffffffffffffffffffffffffffffffffffffffff021916908373ffffffffffffffffffffffffffffffffffffffff1602179055506000600155600060035534801561006e57600080fd5b50611ae08061007e6000396000f3fe608060405234801561001057600080fd5b50600436106100a95760003560e01c80637722489d116100715780637722489d146101a057806381d12c58146101ce578063b24ed7c014610388578063c361a335146103b6578063dfb3ed41146103d4578063f7b10808146105c7576100a9565b80632850e0a7146100ae5780632b20e397146100dc57806331e70508146101265780634f884eb6146101545780635badbe4c14610182575b600080fd5b6100da600480360360208110156100c457600080fd5b810190808035906020019092919050505061079c565b005b6100e461087c565b604051808273ffffffffffffffffffffffffffffffffffffffff1673ffffffffffffffffffffffffffffffffffffffff16815260200191505060405180910390f35b6101526004803603602081101561013c57600080fd5b81019080803590602001909291905050506108a1565b005b6101806004803603602081101561016a57600080fd5b8101908080359060200190929190505050610e05565b005b61018a610e3d565b6040518082815260200191505060405180910390f35b6101cc600480360360208110156101b657600080fd5b8101908080359060200190929190505050610e43565b005b6101fa600480360360208110156101e457600080fd5b8101908080359060200190929190505050610f89565b604051808c81526020018b81526020018a73ffffffffffffffffffffffffffffffffffffffff1673ffffffffffffffffffffffffffffffffffffffff1681526020018973ffffffffffffffffffffffffffffffffffffffff1673ffffffffffffffffffffffffffffffffffffffff16815260200180602001888152602001806020018715151515815260200186151515158152602001851515151581526020018415151515815260200183810383528a818151815260200191508051906020019080838360005b838110156102dc5780820151818401526020810190506102c1565b50505050905090810190601f1680156103095780820380516001836020036101000a031916815260200191505b50838103825288818151815260200191508051906020019080838360005b83811015610342578082015181840152602081019050610327565b50505050905090810190601f16801561036f5780820380516001836020036101000a031916815260200191505b509d505050505050505050505050505060405180910390f35b6103b46004803603602081101561039e57600080fd5b8101908080359060200190929190505050611187565b005b6103be611267565b6040518082815260200191505060405180910390f35b6105c5600480360360808110156103ea57600080fd5b810190808035906020019064010000000081111561040757600080fd5b82018360208201111561041957600080fd5b8035906020019184600183028401116401000000008311171561043b57600080fd5b91908080601f016020809104026020016040519081016040528093929190818152602001838380828437600081840152601f19601f8201169050808301925050505050505091929192908035906020019064010000000081111561049e57600080fd5b8201836020820111156104b057600080fd5b803590602001918460018302840111640100000000831117156104d257600080fd5b91908080601f016020809104026020016040519081016040528093929190818152602001838380828437600081840152601f19601f820116905080830192505050505050509192919290803590602001909291908035906020019064010000000081111561053f57600080fd5b82018360208201111561055157600080fd5b8035906020019184600183028401116401000000008311171561057357600080fd5b91908080601f016020809104026020016040519081016040528093929190818152602001838380828437600081840152601f19601f82011690508083019250505050505050919291929050505061126d565b005b6105f3600480360360208110156105dd57600080fd5b81019080803590602001909291905050506114bc565b604051808881526020018060200180602001806020018773ffffffffffffffffffffffffffffffffffffffff1673ffffffffffffffffffffffffffffffffffffffff16815260200186815260200185600381111561064d57fe5b60ff16815260200184810384528a818151815260200191508051906020019080838360005b8381101561068d578082015181840152602081019050610672565b50505050905090810190601f1680156106ba5780820380516001836020036101000a031916815260200191505b50848103835289818151815260200191508051906020019080838360005b838110156106f35780820151818401526020810190506106d8565b50505050905090810190601f1680156107205780820380516001836020036101000a031916815260200191505b50848103825288818151815260200191508051906020019080838360005b8381101561075957808201518184015260208101905061073e565b50505050905090810190601f1680156107865780820380516001836020036101000a031916815260200191505b509a505050505050505050505060405180910390f35b60006004600083815260200190815260200160002090508060020160009054906101000a900473ffffffffffffffffffffffffffffffffffffffff1673ffffffffffffffffffffffffffffffffffffffff163373ffffffffffffffffffffffffffffffffffffffff161461085b576040517f08c379a000000000000000000000000000000000000000000000000000000000815260040180806020018281038252602b8152602001806119c7602b913960400191505060405180910390fd5b60018160070160006101000a81548160ff0219169083151502179055505050565b6000809054906101000a900473ffffffffffffffffffffffffffffffffffffffff1681565b60006002600083815260200190815260200160002090503373ffffffffffffffffffffffffffffffffffffffff168160040160009054906101000a900473ffffffffffffffffffffffffffffffffffffffff1673ffffffffffffffffffffffffffffffffffffffff161415610961576040517f08c379a0000000000000000000000000000000000000000000000000000000008152600401808060200182810382526034815260200180611a1f6034913960400191505060405180910390fd5b60038081111561096d57fe5b8160060160009054906101000a900460ff16600381111561098a57fe5b14156109e1576040517f08c379a0000000000000000000000000000000000000000000000000000000008152600401808060200182810382526026815260200180611a866026913960400191505060405180910390fd5b600060038111156109ee57fe5b8160060160009054906101000a900460ff166003811115610a0b57fe5b1415610a62576040517f08c379a000000000000000000000000000000000000000000000000000000000815260040180806020018281038252602d8152602001806119f2602d913960400191505060405180910390fd5b60036000815480929190600101919050555060405180610160016040528060035481526020018381526020018260040160009054906101000a900473ffffffffffffffffffffffffffffffffffffffff1673ffffffffffffffffffffffffffffffffffffffff1681526020013373ffffffffffffffffffffffffffffffffffffffff168152602001826003018054600181600116156101000203166002900480601f016020809104026020016040519081016040528092919081815260200182805460018160011615610100020316600290048015610b825780601f10610b5757610100808354040283529160200191610b82565b820191906000526020600020905b815481529060010190602001808311610b6557829003601f168201915b5050505050815260200182600501548152602001826001018054600181600116156101000203166002900480601f016020809104026020016040519081016040528092919081815260200182805460018160011615610100020316600290048015610c2e5780601f10610c0357610100808354040283529160200191610c2e565b820191906000526020600020905b815481529060010190602001808311610c1157829003601f168201915b5050505050815260200160001515815260200160001515815260200160001515815260200160001515815250600460006003548152602001908152602001600020600082015181600001556020820151816001015560408201518160020160006101000a81548173ffffffffffffffffffffffffffffffffffffffff021916908373ffffffffffffffffffffffffffffffffffffffff16021790555060608201518160030160006101000a81548173ffffffffffffffffffffffffffffffffffffffff021916908373ffffffffffffffffffffffffffffffffffffffff1602179055506080820151816004019080519060200190610d2d9291906118a1565b5060a0820151816005015560c0820151816006019080519060200190610d549291906118a1565b5060e08201518160070160006101000a81548160ff0219169083151502179055506101008201518160070160016101000a81548160ff0219169083151502179055506101208201518160070160026101000a81548160ff0219169083151502179055506101408201518160070160036101000a81548160ff02191690831515021790555090505060028160060160006101000a81548160ff02191690836003811115610dfc57fe5b02179055505050565b600060046000838152602001908152602001600020905060018160070160036101000a81548160ff0219169083151502179055505050565b60035481565b6000600460008381526020019081526020016000209050600015158160070160029054906101000a900460ff16151514610ec8576040517f08c379a0000000000000000000000000000000000000000000000000000000008152600401808060200182810382526033815260200180611a536033913960400191505060405180910390fd5b600115158160070160009054906101000a900460ff16151514610f36576040517f08c379a0000000000000000000000000000000000000000000000000000000008152600401808060200182810382526033815260200180611a536033913960400191505060405180910390fd5b60018160070160016101000a81548160ff021916908315150217905550610f8581600101548260030160009054906101000a900473ffffffffffffffffffffffffffffffffffffffff166116f3565b5050565b60046020528060005260406000206000915090508060000154908060010154908060020160009054906101000a900473ffffffffffffffffffffffffffffffffffffffff16908060030160009054906101000a900473ffffffffffffffffffffffffffffffffffffffff1690806004018054600181600116156101000203166002900480601f01602080910402602001604051908101604052809291908181526020018280546001816001161561010002031660029004801561108d5780601f106110625761010080835404028352916020019161108d565b820191906000526020600020905b81548152906001019060200180831161107057829003601f168201915b505050505090806005015490806006018054600181600116156101000203166002900480601f0160208091040260200160405190810160405280929190818152602001828054600181600116156101000203166002900480156111315780601f1061110657610100808354040283529160200191611131565b820191906000526020600020905b81548152906001019060200180831161111457829003601f168201915b5050505050908060070160009054906101000a900460ff16908060070160019054906101000a900460ff16908060070160029054906101000a900460ff16908060070160039054906101000a900460ff1690508b565b60006004600083815260200190815260200160002090508060020160009054906101000a900473ffffffffffffffffffffffffffffffffffffffff1673ffffffffffffffffffffffffffffffffffffffff163373ffffffffffffffffffffffffffffffffffffffff1614611246576040517f08c379a000000000000000000000000000000000000000000000000000000000815260040180806020018281038252602b8152602001806119c7602b913960400191505060405180910390fd5b60018160070160026101000a81548160ff0219169083151502179055505050565b60015481565b60008451116112e4576040517f08c379a000000000000000000000000000000000000000000000000000000000815260040180806020018281038252601a8152602001807f496e76616c696420646f63756d656e742049504653206861736800000000000081525060200191505060405180910390fd5b6000821161135a576040517f08c379a000000000000000000000000000000000000000000000000000000000815260040180806020018281038252601c8152602001807f496e76616c6964207261746520666f7220612070726f70657274792e0000000081525060200191505060405180910390fd5b6001600081548092919060010191905055506040518060e0016040528060015481526020018581526020018281526020018481526020013373ffffffffffffffffffffffffffffffffffffffff168152602001838152602001600160038111156113c057fe5b8152506002600060015481526020019081526020016000206000820151816000015560208201518160010190805190602001906113fe9291906118a1565b50604082015181600201908051906020019061141b9291906118a1565b5060608201518160030190805190602001906114389291906118a1565b5060808201518160040160006101000a81548173ffffffffffffffffffffffffffffffffffffffff021916908373ffffffffffffffffffffffffffffffffffffffff16021790555060a0820151816005015560c08201518160060160006101000a81548160ff021916908360038111156114ae57fe5b021790555090505050505050565b6002602052806000526040600020600091509050806000015490806001018054600181600116156101000203166002900480601f01602080910402602001604051908101604052809291908181526020018280546001816001161561010002031660029004801561156e5780601f106115435761010080835404028352916020019161156e565b820191906000526020600020905b81548152906001019060200180831161155157829003601f168201915b505050505090806002018054600181600116156101000203166002900480601f01602080910402602001604051908101604052809291908181526020018280546001816001161561010002031660029004801561160c5780601f106115e15761010080835404028352916020019161160c565b820191906000526020600020905b8154815290600101906020018083116115ef57829003601f168201915b505050505090806003018054600181600116156101000203166002900480601f0160208091040260200160405190810160405280929190818152602001828054600181600116156101000203166002900480156116aa5780601f1061167f576101008083540402835291602001916116aa565b820191906000526020600020905b81548152906001019060200180831161168d57829003601f168201915b5050505050908060040160009054906101000a900473ffffffffffffffffffffffffffffffffffffffff16908060050154908060060160009054906101000a900460ff16905087565b600060026000848152602001908152602001600020905060038081111561171657fe5b8160060160009054906101000a900460ff16600381111561173357fe5b141561178a576040517f08c379a0000000000000000000000000000000000000000000000000000000008152600401808060200182810382526026815260200180611a866026913960400191505060405180910390fd5b6000600381111561179757fe5b8160060160009054906101000a900460ff1660038111156117b457fe5b141561180b576040517f08c379a000000000000000000000000000000000000000000000000000000000815260040180806020018281038252602d8152602001806119f2602d913960400191505060405180910390fd5b818160040160006101000a81548173ffffffffffffffffffffffffffffffffffffffff021916908373ffffffffffffffffffffffffffffffffffffffff16021790555060008160060160006101000a81548160ff0219169083600381111561186f57fe5b02179055506040518060200160405280600081525081600201908051906020019061189b929190611921565b50505050565b828054600181600116156101000203166002900490600052602060002090601f016020900481019282601f106118e257805160ff1916838001178555611910565b82800160010185558215611910579182015b8281111561190f5782518255916020019190600101906118f4565b5b50905061191d91906119a1565b5090565b828054600181600116156101000203166002900490600052602060002090601f016020900481019282601f1061196257805160ff1916838001178555611990565b82800160010185558215611990579182015b8281111561198f578251825591602001919060010190611974565b5b50905061199d91906119a1565b5090565b6119c391905b808211156119bf5760008160009055506001016119a7565b5090565b9056fe596f7520617265206e6f7420746865206f776e6572206f6620746865206c616e642072657175657374656454686973206c616e64206973206e6f206c6f6e67657220617661696c61626c6520666f722070757263686173654c616e64204f776e65722063616e6e6f74207265717565737420707572636861736520666f7220686973206f776e206c616e642e4f776e657220756e77696c6c696e6720746f2073656c6c20686973206c616e6420746f2074686973207265717565737465722e4c616e6420697320616c726561647920736f6c6420746f20616e6f746865722062757965722ea265627a7a72315820b3fb2e624344fe3f271f5bc84a19135702bbaf2b89a967880000115ba420b95d64736f6c63430005100032",
  "source": "// SPDX-License-Identifier: MIT\r\npragma solidity >=0.4.22 <0.8.0;\r\n\r\ncontract LandTransfer {\r\n\r\n    address public registrar = 0x2E43b638d3Da60077EB5B0EC321C515Ba8606787;\r\n\r\n    // constructor (address _registrar) public {\r\n    //     registrar = _registrar;\r\n    // }\r\n\r\n    enum Status { notForSale, forSale, inProgress, sold }\r\n\r\n    uint public propertyCount = 0;\r\n\r\n    struct propertyDetail {\r\n        uint propertyId;\r\n        string ipfsHash;\r\n        string phone;\r\n        string location;\r\n        address seller;\r\n        uint cost;\r\n        Status status;\r\n    }\r\n\r\n    mapping(uint => propertyDetail) public properties;\r\n\r\n    function registerLand (string memory _hash, string memory _location, uint _cost, string memory _phone) \r\n    public {\r\n        require(bytes(_hash).length > 0, \"Invalid document IPFS hash\");\r\n        require(_cost > 0, \"Invalid rate for a property.\");\r\n        propertyCount ++;\r\n        properties[propertyCount] = propertyDetail(propertyCount, _hash, _phone, _location, msg.sender, _cost, Status.forSale);\r\n    }\r\n\r\n    function changeOwnership(uint _propId, address _newOwner) internal {\r\n        propertyDetail storage p = properties[_propId];\r\n        require(p.status!=Status.sold, \"Land is already sold to another buyer.\");\r\n        require(p.status!=Status.notForSale, \"This land is no longer available for purchase\");\r\n        p.seller = _newOwner;\r\n        p.status = Status.notForSale;\r\n        p.phone = \"\";\r\n    }\r\n\r\n    uint public requestCount = 0;\r\n\r\n    struct purchaseRequest {\r\n        uint requestId;\r\n        uint propertyId;\r\n        address owner;\r\n        address buyer;\r\n        string location;\r\n        uint cost;\r\n        string ipfsHash;\r\n        bool ownerApproved;\r\n        bool registrarApproved;\r\n        bool ownerRejected;\r\n        bool registrarRejected;\r\n    }\r\n\r\n    mapping(uint => purchaseRequest) public requests;\r\n\r\n    function sendRequest (uint _propId) public {\r\n        propertyDetail storage p = properties[_propId];\r\n        require(p.seller!=msg.sender, \"Land Owner cannot request purchase for his own land.\");\r\n        require(p.status!=Status.sold, \"Land is already sold to another buyer.\");\r\n        require(p.status!=Status.notForSale, \"This land is no longer available for purchase\");\r\n        requestCount ++;\r\n        requests[requestCount] = purchaseRequest(requestCount, _propId, p.seller, msg.sender, p.location, p.cost, p.ipfsHash, false, false, false, false);\r\n        p.status = Status.inProgress;\r\n    }\r\n\r\n    function ownerApproval (uint _requestId) public {\r\n        purchaseRequest storage r = requests[_requestId];\r\n        require(msg.sender==r.owner, \"You are not the owner of the land requested\");\r\n        r.ownerApproved = true;\r\n        //send notification to Land Registrar\r\n    }\r\n\r\n    function ownerRejection (uint _requestId) public {\r\n        purchaseRequest storage r = requests[_requestId];\r\n        require(msg.sender==r.owner, \"You are not the owner of the land requested\");\r\n        r.ownerRejected = true;\r\n        //send notification to Requester\r\n    }\r\n\r\n    function registrarApproval (uint _requestId) public {\r\n        purchaseRequest storage r = requests[_requestId];\r\n        require(r.ownerRejected==false, \"Owner unwilling to sell his land to this requester.\");\r\n        require(r.ownerApproved==true, \"Owner unwilling to sell his land to this requester.\");\r\n        // Check whether msg.sender is the land registrar\r\n        // require(msg.sender==r.owner, \"You are not the owner of the land requested\");\r\n        r.registrarApproved = true;\r\n        //change the ownership of land function call\r\n        changeOwnership(r.propertyId, r.buyer);\r\n    }\r\n\r\n    function registrarRejection (uint _requestId) public {\r\n        purchaseRequest storage r = requests[_requestId];\r\n        // Check whether msg.sender is the land registrar\r\n        // require(msg.sender==r.owner, \"You are not the owner of the land requested\");\r\n        r.registrarRejected = true;\r\n        //send notification to Requester\r\n    }\r\n    \r\n}",
  "sourcePath": "C:/Users/DELL/Desktop/Secure Share/secure-share/contracts/LandTransfer.sol",
  "compiler": {
    "name": "solc",
    "version": "0.5.16+commit.9c3226ce.Emscripten.clang"
  },
  "schemaVersion": "3.3.1",
  "updatedAt": "2020-11-15T06:41:42.401Z",
  "networkType": "ethereum",
  "devdoc": {
    "methods": {}
  },
  "userdoc": {
    "methods": {}
  }
}