{
  "contractName": "LandTransfer",
  "abi": [
    {
      "constant": true,
      "inputs": [
        {
          "internalType": "uint256",
          "name": "",
          "type": "uint256"
        }
      ],
      "name": "properties",
      "outputs": [
        {
          "internalType": "uint256",
          "name": "propertyId",
          "type": "uint256"
        },
        {
          "internalType": "string",
          "name": "ipfsHash",
          "type": "string"
        },
        {
          "internalType": "string",
          "name": "phone",
          "type": "string"
        },
        {
          "internalType": "string",
          "name": "location",
          "type": "string"
        },
        {
          "internalType": "address payable",
          "name": "seller",
          "type": "address"
        },
        {
          "internalType": "uint256",
          "name": "cost",
          "type": "uint256"
        },
        {
          "internalType": "enum LandTransfer.Status",
          "name": "status",
          "type": "uint8"
        }
      ],
      "payable": false,
      "stateMutability": "view",
      "type": "function"
    },
    {
      "constant": true,
      "inputs": [],
      "name": "propertyCount",
      "outputs": [
        {
          "internalType": "uint256",
          "name": "",
          "type": "uint256"
        }
      ],
      "payable": false,
      "stateMutability": "view",
      "type": "function"
    },
    {
      "constant": true,
      "inputs": [],
      "name": "registrar",
      "outputs": [
        {
          "internalType": "address payable",
          "name": "",
          "type": "address"
        }
      ],
      "payable": false,
      "stateMutability": "view",
      "type": "function"
    },
    {
      "constant": true,
      "inputs": [],
      "name": "requestCount",
      "outputs": [
        {
          "internalType": "uint256",
          "name": "",
          "type": "uint256"
        }
      ],
      "payable": false,
      "stateMutability": "view",
      "type": "function"
    },
    {
      "constant": true,
      "inputs": [
        {
          "internalType": "uint256",
          "name": "",
          "type": "uint256"
        }
      ],
      "name": "requests",
      "outputs": [
        {
          "internalType": "uint256",
          "name": "requestId",
          "type": "uint256"
        },
        {
          "internalType": "uint256",
          "name": "propertyId",
          "type": "uint256"
        },
        {
          "internalType": "address payable",
          "name": "owner",
          "type": "address"
        },
        {
          "internalType": "address payable",
          "name": "buyer",
          "type": "address"
        },
        {
          "internalType": "string",
          "name": "location",
          "type": "string"
        },
        {
          "internalType": "uint256",
          "name": "cost",
          "type": "uint256"
        },
        {
          "internalType": "string",
          "name": "ipfsHash",
          "type": "string"
        },
        {
          "internalType": "bool",
          "name": "ownerApproved",
          "type": "bool"
        },
        {
          "internalType": "bool",
          "name": "registrarApproved",
          "type": "bool"
        },
        {
          "internalType": "bool",
          "name": "ownerRejected",
          "type": "bool"
        },
        {
          "internalType": "bool",
          "name": "registrarRejected",
          "type": "bool"
        }
      ],
      "payable": false,
      "stateMutability": "view",
      "type": "function"
    },
    {
      "constant": false,
      "inputs": [
        {
          "internalType": "string",
          "name": "_hash",
          "type": "string"
        },
        {
          "internalType": "string",
          "name": "_location",
          "type": "string"
        },
        {
          "internalType": "uint256",
          "name": "_cost",
          "type": "uint256"
        },
        {
          "internalType": "string",
          "name": "_phone",
          "type": "string"
        }
      ],
      "name": "registerLand",
      "outputs": [],
      "payable": false,
      "stateMutability": "nonpayable",
      "type": "function"
    },
    {
      "constant": false,
      "inputs": [
        {
          "internalType": "uint256",
          "name": "_propId",
          "type": "uint256"
        }
      ],
      "name": "sendRequest",
      "outputs": [],
      "payable": true,
      "stateMutability": "payable",
      "type": "function"
    },
    {
      "constant": false,
      "inputs": [
        {
          "internalType": "uint256",
          "name": "_requestId",
          "type": "uint256"
        }
      ],
      "name": "ownerApproval",
      "outputs": [],
      "payable": true,
      "stateMutability": "payable",
      "type": "function"
    },
    {
      "constant": false,
      "inputs": [
        {
          "internalType": "uint256",
          "name": "_requestId",
          "type": "uint256"
        }
      ],
      "name": "ownerRejection",
      "outputs": [],
      "payable": true,
      "stateMutability": "payable",
      "type": "function"
    },
    {
      "constant": false,
      "inputs": [
        {
          "internalType": "uint256",
          "name": "_requestId",
          "type": "uint256"
        }
      ],
      "name": "registrarApproval",
      "outputs": [],
      "payable": true,
      "stateMutability": "payable",
      "type": "function"
    },
    {
      "constant": false,
      "inputs": [
        {
          "internalType": "uint256",
          "name": "_requestId",
          "type": "uint256"
        }
      ],
      "name": "registrarRejection",
      "outputs": [],
      "payable": true,
      "stateMutability": "payable",
      "type": "function"
    }
  ],
  "bytecode": "0x6080604052336000806101000a81548173ffffffffffffffffffffffffffffffffffffffff021916908373ffffffffffffffffffffffffffffffffffffffff1602179055506000600155600060035534801561005a57600080fd5b50611d358061006a6000396000f3fe60806040526004361061009c5760003560e01c80637722489d116100645780637722489d146101ad57806381d12c58146101db578063b24ed7c0146103a2578063c361a335146103d0578063dfb3ed41146103fb578063f7b10808146105fb5761009c565b80632850e0a7146100a15780632b20e397146100cf57806331e70508146101265780634f884eb6146101545780635badbe4c14610182575b600080fd5b6100cd600480360360208110156100b757600080fd5b81019080803590602001909291905050506107dd565b005b3480156100db57600080fd5b506100e4610925565b604051808273ffffffffffffffffffffffffffffffffffffffff1673ffffffffffffffffffffffffffffffffffffffff16815260200191505060405180910390f35b6101526004803603602081101561013c57600080fd5b810190808035906020019092919050505061094a565b005b6101806004803603602081101561016a57600080fd5b8101908080359060200190929190505050610f19565b005b34801561018e57600080fd5b50610197610fbc565b6040518082815260200191505060405180910390f35b6101d9600480360360208110156101c357600080fd5b8101908080359060200190929190505050610fc2565b005b3480156101e757600080fd5b50610214600480360360208110156101fe57600080fd5b8101908080359060200190929190505050611173565b604051808c81526020018b81526020018a73ffffffffffffffffffffffffffffffffffffffff1673ffffffffffffffffffffffffffffffffffffffff1681526020018973ffffffffffffffffffffffffffffffffffffffff1673ffffffffffffffffffffffffffffffffffffffff16815260200180602001888152602001806020018715151515815260200186151515158152602001851515151581526020018415151515815260200183810383528a818151815260200191508051906020019080838360005b838110156102f65780820151818401526020810190506102db565b50505050905090810190601f1680156103235780820380516001836020036101000a031916815260200191505b50838103825288818151815260200191508051906020019080838360005b8381101561035c578082015181840152602081019050610341565b50505050905090810190601f1680156103895780820380516001836020036101000a031916815260200191505b509d505050505050505050505050505060405180910390f35b6103ce600480360360208110156103b857600080fd5b8101908080359060200190929190505050611371565b005b3480156103dc57600080fd5b506103e56114bc565b6040518082815260200191505060405180910390f35b34801561040757600080fd5b506105f96004803603608081101561041e57600080fd5b810190808035906020019064010000000081111561043b57600080fd5b82018360208201111561044d57600080fd5b8035906020019184600183028401116401000000008311171561046f57600080fd5b91908080601f016020809104026020016040519081016040528093929190818152602001838380828437600081840152601f19601f820116905080830192505050505050509192919290803590602001906401000000008111156104d257600080fd5b8201836020820111156104e457600080fd5b8035906020019184600183028401116401000000008311171561050657600080fd5b91908080601f016020809104026020016040519081016040528093929190818152602001838380828437600081840152601f19601f820116905080830192505050505050509192919290803590602001909291908035906020019064010000000081111561057357600080fd5b82018360208201111561058557600080fd5b803590602001918460018302840111640100000000831117156105a757600080fd5b91908080601f016020809104026020016040519081016040528093929190818152602001838380828437600081840152601f19601f8201169050808301925050505050505091929192905050506114c2565b005b34801561060757600080fd5b506106346004803603602081101561061e57600080fd5b8101908080359060200190929190505050611711565b604051808881526020018060200180602001806020018773ffffffffffffffffffffffffffffffffffffffff1673ffffffffffffffffffffffffffffffffffffffff16815260200186815260200185600381111561068e57fe5b60ff16815260200184810384528a818151815260200191508051906020019080838360005b838110156106ce5780820151818401526020810190506106b3565b50505050905090810190601f1680156106fb5780820380516001836020036101000a031916815260200191505b50848103835289818151815260200191508051906020019080838360005b83811015610734578082015181840152602081019050610719565b50505050905090810190601f1680156107615780820380516001836020036101000a031916815260200191505b50848103825288818151815260200191508051906020019080838360005b8381101561079a57808201518184015260208101905061077f565b50505050905090810190601f1680156107c75780820380516001836020036101000a031916815260200191505b509a505050505050505050505060405180910390f35b60006004600083815260200190815260200160002090508060020160009054906101000a900473ffffffffffffffffffffffffffffffffffffffff1673ffffffffffffffffffffffffffffffffffffffff163373ffffffffffffffffffffffffffffffffffffffff161461089c576040517f08c379a000000000000000000000000000000000000000000000000000000000815260040180806020018281038252602b815260200180611c1c602b913960400191505060405180910390fd5b60018160070160006101000a81548160ff0219169083151502179055506000809054906101000a900473ffffffffffffffffffffffffffffffffffffffff1673ffffffffffffffffffffffffffffffffffffffff166108fc349081150290604051600060405180830381858888f19350505050158015610920573d6000803e3d6000fd5b505050565b6000809054906101000a900473ffffffffffffffffffffffffffffffffffffffff1681565b60006002600083815260200190815260200160002090503373ffffffffffffffffffffffffffffffffffffffff168160040160009054906101000a900473ffffffffffffffffffffffffffffffffffffffff1673ffffffffffffffffffffffffffffffffffffffff161415610a0a576040517f08c379a0000000000000000000000000000000000000000000000000000000008152600401808060200182810382526034815260200180611c746034913960400191505060405180910390fd5b600380811115610a1657fe5b8160060160009054906101000a900460ff166003811115610a3357fe5b1415610a8a576040517f08c379a0000000000000000000000000000000000000000000000000000000008152600401808060200182810382526026815260200180611cdb6026913960400191505060405180910390fd5b60006003811115610a9757fe5b8160060160009054906101000a900460ff166003811115610ab457fe5b1415610b0b576040517f08c379a000000000000000000000000000000000000000000000000000000000815260040180806020018281038252602d815260200180611c47602d913960400191505060405180910390fd5b8060040160009054906101000a900473ffffffffffffffffffffffffffffffffffffffff1673ffffffffffffffffffffffffffffffffffffffff166108fc349081150290604051600060405180830381858888f19350505050158015610b75573d6000803e3d6000fd5b5060036000815480929190600101919050555060405180610160016040528060035481526020018381526020018260040160009054906101000a900473ffffffffffffffffffffffffffffffffffffffff1673ffffffffffffffffffffffffffffffffffffffff1681526020013373ffffffffffffffffffffffffffffffffffffffff168152602001826003018054600181600116156101000203166002900480601f016020809104026020016040519081016040528092919081815260200182805460018160011615610100020316600290048015610c965780601f10610c6b57610100808354040283529160200191610c96565b820191906000526020600020905b815481529060010190602001808311610c7957829003601f168201915b5050505050815260200182600501548152602001826001018054600181600116156101000203166002900480601f016020809104026020016040519081016040528092919081815260200182805460018160011615610100020316600290048015610d425780601f10610d1757610100808354040283529160200191610d42565b820191906000526020600020905b815481529060010190602001808311610d2557829003601f168201915b5050505050815260200160001515815260200160001515815260200160001515815260200160001515815250600460006003548152602001908152602001600020600082015181600001556020820151816001015560408201518160020160006101000a81548173ffffffffffffffffffffffffffffffffffffffff021916908373ffffffffffffffffffffffffffffffffffffffff16021790555060608201518160030160006101000a81548173ffffffffffffffffffffffffffffffffffffffff021916908373ffffffffffffffffffffffffffffffffffffffff1602179055506080820151816004019080519060200190610e41929190611af6565b5060a0820151816005015560c0820151816006019080519060200190610e68929190611af6565b5060e08201518160070160006101000a81548160ff0219169083151502179055506101008201518160070160016101000a81548160ff0219169083151502179055506101208201518160070160026101000a81548160ff0219169083151502179055506101408201518160070160036101000a81548160ff02191690831515021790555090505060028160060160006101000a81548160ff02191690836003811115610f1057fe5b02179055505050565b600060046000838152602001908152602001600020905060018160070160036101000a81548160ff0219169083151502179055508060030160009054906101000a900473ffffffffffffffffffffffffffffffffffffffff1673ffffffffffffffffffffffffffffffffffffffff166108fc349081150290604051600060405180830381858888f19350505050158015610fb7573d6000803e3d6000fd5b505050565b60035481565b6000600460008381526020019081526020016000209050600015158160070160029054906101000a900460ff16151514611047576040517f08c379a0000000000000000000000000000000000000000000000000000000008152600401808060200182810382526033815260200180611ca86033913960400191505060405180910390fd5b600115158160070160009054906101000a900460ff161515146110b5576040517f08c379a0000000000000000000000000000000000000000000000000000000008152600401808060200182810382526033815260200180611ca86033913960400191505060405180910390fd5b60018160070160016101000a81548160ff0219169083151502179055508060020160009054906101000a900473ffffffffffffffffffffffffffffffffffffffff1673ffffffffffffffffffffffffffffffffffffffff166108fc349081150290604051600060405180830381858888f1935050505015801561113c573d6000803e3d6000fd5b5061116f81600101548260030160009054906101000a900473ffffffffffffffffffffffffffffffffffffffff16611948565b5050565b60046020528060005260406000206000915090508060000154908060010154908060020160009054906101000a900473ffffffffffffffffffffffffffffffffffffffff16908060030160009054906101000a900473ffffffffffffffffffffffffffffffffffffffff1690806004018054600181600116156101000203166002900480601f0160208091040260200160405190810160405280929190818152602001828054600181600116156101000203166002900480156112775780601f1061124c57610100808354040283529160200191611277565b820191906000526020600020905b81548152906001019060200180831161125a57829003601f168201915b505050505090806005015490806006018054600181600116156101000203166002900480601f01602080910402602001604051908101604052809291908181526020018280546001816001161561010002031660029004801561131b5780601f106112f05761010080835404028352916020019161131b565b820191906000526020600020905b8154815290600101906020018083116112fe57829003601f168201915b5050505050908060070160009054906101000a900460ff16908060070160019054906101000a900460ff16908060070160029054906101000a900460ff16908060070160039054906101000a900460ff1690508b565b60006004600083815260200190815260200160002090508060020160009054906101000a900473ffffffffffffffffffffffffffffffffffffffff1673ffffffffffffffffffffffffffffffffffffffff163373ffffffffffffffffffffffffffffffffffffffff1614611430576040517f08c379a000000000000000000000000000000000000000000000000000000000815260040180806020018281038252602b815260200180611c1c602b913960400191505060405180910390fd5b60018160070160026101000a81548160ff0219169083151502179055508060030160009054906101000a900473ffffffffffffffffffffffffffffffffffffffff1673ffffffffffffffffffffffffffffffffffffffff166108fc349081150290604051600060405180830381858888f193505050501580156114b7573d6000803e3d6000fd5b505050565b60015481565b6000845111611539576040517f08c379a000000000000000000000000000000000000000000000000000000000815260040180806020018281038252601a8152602001807f496e76616c696420646f63756d656e742049504653206861736800000000000081525060200191505060405180910390fd5b600082116115af576040517f08c379a000000000000000000000000000000000000000000000000000000000815260040180806020018281038252601c8152602001807f496e76616c6964207261746520666f7220612070726f70657274792e0000000081525060200191505060405180910390fd5b6001600081548092919060010191905055506040518060e0016040528060015481526020018581526020018281526020018481526020013373ffffffffffffffffffffffffffffffffffffffff1681526020018381526020016001600381111561161557fe5b815250600260006001548152602001908152602001600020600082015181600001556020820151816001019080519060200190611653929190611af6565b506040820151816002019080519060200190611670929190611af6565b50606082015181600301908051906020019061168d929190611af6565b5060808201518160040160006101000a81548173ffffffffffffffffffffffffffffffffffffffff021916908373ffffffffffffffffffffffffffffffffffffffff16021790555060a0820151816005015560c08201518160060160006101000a81548160ff0219169083600381111561170357fe5b021790555090505050505050565b6002602052806000526040600020600091509050806000015490806001018054600181600116156101000203166002900480601f0160208091040260200160405190810160405280929190818152602001828054600181600116156101000203166002900480156117c35780601f10611798576101008083540402835291602001916117c3565b820191906000526020600020905b8154815290600101906020018083116117a657829003601f168201915b505050505090806002018054600181600116156101000203166002900480601f0160208091040260200160405190810160405280929190818152602001828054600181600116156101000203166002900480156118615780601f1061183657610100808354040283529160200191611861565b820191906000526020600020905b81548152906001019060200180831161184457829003601f168201915b505050505090806003018054600181600116156101000203166002900480601f0160208091040260200160405190810160405280929190818152602001828054600181600116156101000203166002900480156118ff5780601f106118d4576101008083540402835291602001916118ff565b820191906000526020600020905b8154815290600101906020018083116118e257829003601f168201915b5050505050908060040160009054906101000a900473ffffffffffffffffffffffffffffffffffffffff16908060050154908060060160009054906101000a900460ff16905087565b600060026000848152602001908152602001600020905060038081111561196b57fe5b8160060160009054906101000a900460ff16600381111561198857fe5b14156119df576040517f08c379a0000000000000000000000000000000000000000000000000000000008152600401808060200182810382526026815260200180611cdb6026913960400191505060405180910390fd5b600060038111156119ec57fe5b8160060160009054906101000a900460ff166003811115611a0957fe5b1415611a60576040517f08c379a000000000000000000000000000000000000000000000000000000000815260040180806020018281038252602d815260200180611c47602d913960400191505060405180910390fd5b818160040160006101000a81548173ffffffffffffffffffffffffffffffffffffffff021916908373ffffffffffffffffffffffffffffffffffffffff16021790555060008160060160006101000a81548160ff02191690836003811115611ac457fe5b021790555060405180602001604052806000815250816002019080519060200190611af0929190611b76565b50505050565b828054600181600116156101000203166002900490600052602060002090601f016020900481019282601f10611b3757805160ff1916838001178555611b65565b82800160010185558215611b65579182015b82811115611b64578251825591602001919060010190611b49565b5b509050611b729190611bf6565b5090565b828054600181600116156101000203166002900490600052602060002090601f016020900481019282601f10611bb757805160ff1916838001178555611be5565b82800160010185558215611be5579182015b82811115611be4578251825591602001919060010190611bc9565b5b509050611bf29190611bf6565b5090565b611c1891905b80821115611c14576000816000905550600101611bfc565b5090565b9056fe596f7520617265206e6f7420746865206f776e6572206f6620746865206c616e642072657175657374656454686973206c616e64206973206e6f206c6f6e67657220617661696c61626c6520666f722070757263686173654c616e64204f776e65722063616e6e6f74207265717565737420707572636861736520666f7220686973206f776e206c616e642e4f776e657220756e77696c6c696e6720746f2073656c6c20686973206c616e6420746f2074686973207265717565737465722e4c616e6420697320616c726561647920736f6c6420746f20616e6f746865722062757965722ea265627a7a72315820d85484d0b78a88af8900ee44337d3d6ed97600e6671b5675651083cbb9a049f364736f6c63430005100032",
  "source": "// SPDX-License-Identifier: MIT\r\npragma solidity >=0.4.22 <0.8.0;\r\n\r\ncontract LandTransfer {\r\n\r\n    address payable public registrar = msg.sender;\r\n\r\n    enum Status { notForSale, forSale, inProgress, sold }\r\n\r\n    uint public propertyCount = 0;\r\n\r\n    struct propertyDetail {\r\n        uint propertyId;\r\n        string ipfsHash;\r\n        string phone;\r\n        string location;\r\n        address payable seller;\r\n        uint cost;\r\n        Status status;\r\n    }\r\n\r\n    mapping(uint => propertyDetail) public properties;\r\n\r\n    function registerLand (string memory _hash, string memory _location, uint _cost, string memory _phone) \r\n    public {\r\n        require(bytes(_hash).length > 0, \"Invalid document IPFS hash\");\r\n        require(_cost > 0, \"Invalid rate for a property.\");\r\n        propertyCount ++;\r\n        properties[propertyCount] = propertyDetail(propertyCount, _hash, _phone, _location, msg.sender, _cost, Status.forSale);\r\n    }\r\n\r\n    function changeOwnership(uint _propId, address payable _newOwner) internal {\r\n        propertyDetail storage p = properties[_propId];\r\n        require(p.status!=Status.sold, \"Land is already sold to another buyer.\");\r\n        require(p.status!=Status.notForSale, \"This land is no longer available for purchase\");\r\n        p.seller = _newOwner;\r\n        p.status = Status.notForSale;\r\n        p.phone = \"\";\r\n    }\r\n\r\n    uint public requestCount = 0;\r\n\r\n    struct purchaseRequest {\r\n        uint requestId;\r\n        uint propertyId;\r\n        address payable owner;\r\n        address payable buyer;\r\n        string location;\r\n        uint cost;\r\n        string ipfsHash;\r\n        bool ownerApproved;\r\n        bool registrarApproved;\r\n        bool ownerRejected;\r\n        bool registrarRejected;\r\n    }\r\n\r\n    mapping(uint => purchaseRequest) public requests;\r\n\r\n    function sendRequest (uint _propId) public payable {\r\n        propertyDetail storage p = properties[_propId];\r\n        require(p.seller!=msg.sender, \"Land Owner cannot request purchase for his own land.\");\r\n        require(p.status!=Status.sold, \"Land is already sold to another buyer.\");\r\n        require(p.status!=Status.notForSale, \"This land is no longer available for purchase\");\r\n        (p.seller).transfer(msg.value);\r\n        requestCount ++;\r\n        requests[requestCount] = purchaseRequest(requestCount, _propId, p.seller, msg.sender, p.location, p.cost, p.ipfsHash, false, false, false, false);\r\n        p.status = Status.inProgress;\r\n    }\r\n\r\n    function ownerApproval (uint _requestId) public payable {\r\n        purchaseRequest storage r = requests[_requestId];\r\n        require(msg.sender==r.owner, \"You are not the owner of the land requested\");\r\n        r.ownerApproved = true;\r\n        registrar.transfer(msg.value);\r\n        //send notification to Land Registrar\r\n    }\r\n\r\n    function ownerRejection (uint _requestId) public payable {\r\n        purchaseRequest storage r = requests[_requestId];\r\n        require(msg.sender==r.owner, \"You are not the owner of the land requested\");\r\n        r.ownerRejected = true;\r\n        (r.buyer).transfer(msg.value);\r\n        //send notification to Requester\r\n    }\r\n\r\n    function registrarApproval (uint _requestId) public payable {\r\n        purchaseRequest storage r = requests[_requestId];\r\n        require(r.ownerRejected==false, \"Owner unwilling to sell his land to this requester.\");\r\n        require(r.ownerApproved==true, \"Owner unwilling to sell his land to this requester.\");\r\n        r.registrarApproved = true;\r\n        (r.owner).transfer(msg.value);\r\n        //change the ownership of land function call\r\n        changeOwnership(r.propertyId, r.buyer);\r\n    }\r\n\r\n    function registrarRejection (uint _requestId) public payable {\r\n        purchaseRequest storage r = requests[_requestId];\r\n        r.registrarRejected = true;\r\n        (r.buyer).transfer(msg.value);\r\n        //send notification to Requester\r\n    }\r\n    \r\n}",
  "sourcePath": "C:/Users/DELL/Desktop/Registrador/registrador/contracts/LandTransfer.sol",
  "compiler": {
    "name": "solc",
    "version": "0.5.16+commit.9c3226ce.Emscripten.clang"
  },
  "schemaVersion": "3.3.1",
  "updatedAt": "2020-11-17T13:10:31.409Z",
  "networkType": "ethereum",
  "devdoc": {
    "methods": {}
  },
  "userdoc": {
    "methods": {}
  }
}